{
  "_format": "hh-sol-artifact-1",
  "contractName": "UserContract",
  "sourceName": "contracts/UserContract.sol",
  "abi": [
    {
      "anonymous": false,
      "inputs": [
        {
          "indexed": false,
          "internalType": "uint256",
          "name": "id",
          "type": "uint256"
        },
        {
          "indexed": false,
          "internalType": "address",
          "name": "user",
          "type": "address"
        },
        {
          "indexed": false,
          "internalType": "string",
          "name": "dateTime",
          "type": "string"
        },
        {
          "indexed": false,
          "internalType": "string",
          "name": "natureOfIncident",
          "type": "string"
        },
        {
          "indexed": false,
          "internalType": "string",
          "name": "placeOfOccurrence",
          "type": "string"
        },
        {
          "indexed": false,
          "internalType": "string",
          "name": "description",
          "type": "string"
        },
        {
          "indexed": false,
          "internalType": "string",
          "name": "digitalSignature",
          "type": "string"
        },
        {
          "indexed": false,
          "internalType": "string",
          "name": "evidence",
          "type": "string"
        },
        {
          "indexed": false,
          "internalType": "string",
          "name": "photoHash",
          "type": "string"
        }
      ],
      "name": "CaseSubmitted",
      "type": "event"
    },
    {
      "inputs": [],
      "name": "caseCount",
      "outputs": [
        {
          "internalType": "uint256",
          "name": "",
          "type": "uint256"
        }
      ],
      "stateMutability": "view",
      "type": "function"
    },
    {
      "inputs": [
        {
          "internalType": "uint256",
          "name": "",
          "type": "uint256"
        }
      ],
      "name": "cases",
      "outputs": [
        {
          "internalType": "uint256",
          "name": "id",
          "type": "uint256"
        },
        {
          "internalType": "address",
          "name": "user",
          "type": "address"
        },
        {
          "internalType": "string",
          "name": "dateTime",
          "type": "string"
        },
        {
          "internalType": "string",
          "name": "natureOfIncident",
          "type": "string"
        },
        {
          "internalType": "string",
          "name": "placeOfOccurrence",
          "type": "string"
        },
        {
          "internalType": "string",
          "name": "description",
          "type": "string"
        },
        {
          "internalType": "string",
          "name": "digitalSignature",
          "type": "string"
        },
        {
          "internalType": "string",
          "name": "evidence",
          "type": "string"
        },
        {
          "internalType": "string",
          "name": "photoHash",
          "type": "string"
        },
        {
          "internalType": "bool",
          "name": "submitted",
          "type": "bool"
        }
      ],
      "stateMutability": "view",
      "type": "function"
    },
    {
      "inputs": [
        {
          "internalType": "string",
          "name": "_dateTime",
          "type": "string"
        },
        {
          "internalType": "string",
          "name": "_natureOfIncident",
          "type": "string"
        },
        {
          "internalType": "string",
          "name": "_placeOfOccurrence",
          "type": "string"
        },
        {
          "internalType": "string",
          "name": "_description",
          "type": "string"
        },
        {
          "internalType": "string",
          "name": "_digitalSignature",
          "type": "string"
        },
        {
          "internalType": "string",
          "name": "_evidence",
          "type": "string"
        },
        {
          "internalType": "string",
          "name": "_photoHash",
          "type": "string"
        }
      ],
      "name": "submitCase",
      "outputs": [],
      "stateMutability": "nonpayable",
      "type": "function"
    }
  ],
  "bytecode": "0x60806040526000805534801561001457600080fd5b50611024806100246000396000f3fe608060405234801561001057600080fd5b50600436106100415760003560e01c806337474e3214610046578063da2d7e9514610062578063f09790dd14610080575b600080fd5b610060600480360381019061005b9190610840565b6100b9565b005b61006a6102a7565b60405161007791906109bf565b60405180910390f35b61009a60048036038101906100959190610a06565b6102ad565b6040516100b09a99989796959493929190610b0e565b60405180910390f35b6000808154809291906100cb90610c0a565b919050555060405180610140016040528060005481526020013373ffffffffffffffffffffffffffffffffffffffff1681526020018881526020018781526020018681526020018581526020018481526020018381526020018281526020016001151581525060016000805481526020019081526020016000206000820151816000015560208201518160010160006101000a81548173ffffffffffffffffffffffffffffffffffffffff021916908373ffffffffffffffffffffffffffffffffffffffff16021790555060408201518160020190816101ab9190610e5e565b5060608201518160030190816101c19190610e5e565b5060808201518160040190816101d79190610e5e565b5060a08201518160050190816101ed9190610e5e565b5060c08201518160060190816102039190610e5e565b5060e08201518160070190816102199190610e5e565b506101008201518160080190816102309190610e5e565b506101208201518160090160006101000a81548160ff0219169083151502179055509050507f66b69eea99a0a2f4ba953d78dac524204670bb4b14c315edeead39ac723a864b600054338989898989898960405161029699989796959493929190610f30565b60405180910390a150505050505050565b60005481565b60016020528060005260406000206000915090508060000154908060010160009054906101000a900473ffffffffffffffffffffffffffffffffffffffff16908060020180546102fc90610c81565b80601f016020809104026020016040519081016040528092919081815260200182805461032890610c81565b80156103755780601f1061034a57610100808354040283529160200191610375565b820191906000526020600020905b81548152906001019060200180831161035857829003601f168201915b50505050509080600301805461038a90610c81565b80601f01602080910402602001604051908101604052809291908181526020018280546103b690610c81565b80156104035780601f106103d857610100808354040283529160200191610403565b820191906000526020600020905b8154815290600101906020018083116103e657829003601f168201915b50505050509080600401805461041890610c81565b80601f016020809104026020016040519081016040528092919081815260200182805461044490610c81565b80156104915780601f1061046657610100808354040283529160200191610491565b820191906000526020600020905b81548152906001019060200180831161047457829003601f168201915b5050505050908060050180546104a690610c81565b80601f01602080910402602001604051908101604052809291908181526020018280546104d290610c81565b801561051f5780601f106104f45761010080835404028352916020019161051f565b820191906000526020600020905b81548152906001019060200180831161050257829003601f168201915b50505050509080600601805461053490610c81565b80601f016020809104026020016040519081016040528092919081815260200182805461056090610c81565b80156105ad5780601f10610582576101008083540402835291602001916105ad565b820191906000526020600020905b81548152906001019060200180831161059057829003601f168201915b5050505050908060070180546105c290610c81565b80601f01602080910402602001604051908101604052809291908181526020018280546105ee90610c81565b801561063b5780601f106106105761010080835404028352916020019161063b565b820191906000526020600020905b81548152906001019060200180831161061e57829003601f168201915b50505050509080600801805461065090610c81565b80601f016020809104026020016040519081016040528092919081815260200182805461067c90610c81565b80156106c95780601f1061069e576101008083540402835291602001916106c9565b820191906000526020600020905b8154815290600101906020018083116106ac57829003601f168201915b5050505050908060090160009054906101000a900460ff1690508a565b6000604051905090565b600080fd5b600080fd5b600080fd5b600080fd5b6000601f19601f8301169050919050565b7f4e487b7100000000000000000000000000000000000000000000000000000000600052604160045260246000fd5b61074d82610704565b810181811067ffffffffffffffff8211171561076c5761076b610715565b5b80604052505050565b600061077f6106e6565b905061078b8282610744565b919050565b600067ffffffffffffffff8211156107ab576107aa610715565b5b6107b482610704565b9050602081019050919050565b82818337600083830152505050565b60006107e36107de84610790565b610775565b9050828152602081018484840111156107ff576107fe6106ff565b5b61080a8482856107c1565b509392505050565b600082601f830112610827576108266106fa565b5b81356108378482602086016107d0565b91505092915050565b600080600080600080600060e0888a03121561085f5761085e6106f0565b5b600088013567ffffffffffffffff81111561087d5761087c6106f5565b5b6108898a828b01610812565b975050602088013567ffffffffffffffff8111156108aa576108a96106f5565b5b6108b68a828b01610812565b965050604088013567ffffffffffffffff8111156108d7576108d66106f5565b5b6108e38a828b01610812565b955050606088013567ffffffffffffffff811115610904576109036106f5565b5b6109108a828b01610812565b945050608088013567ffffffffffffffff811115610931576109306106f5565b5b61093d8a828b01610812565b93505060a088013567ffffffffffffffff81111561095e5761095d6106f5565b5b61096a8a828b01610812565b92505060c088013567ffffffffffffffff81111561098b5761098a6106f5565b5b6109978a828b01610812565b91505092959891949750929550565b6000819050919050565b6109b9816109a6565b82525050565b60006020820190506109d460008301846109b0565b92915050565b6109e3816109a6565b81146109ee57600080fd5b50565b600081359050610a00816109da565b92915050565b600060208284031215610a1c57610a1b6106f0565b5b6000610a2a848285016109f1565b91505092915050565b600073ffffffffffffffffffffffffffffffffffffffff82169050919050565b6000610a5e82610a33565b9050919050565b610a6e81610a53565b82525050565b600081519050919050565b600082825260208201905092915050565b60005b83811015610aae578082015181840152602081019050610a93565b60008484015250505050565b6000610ac582610a74565b610acf8185610a7f565b9350610adf818560208601610a90565b610ae881610704565b840191505092915050565b60008115159050919050565b610b0881610af3565b82525050565b600061014082019050610b24600083018d6109b0565b610b31602083018c610a65565b8181036040830152610b43818b610aba565b90508181036060830152610b57818a610aba565b90508181036080830152610b6b8189610aba565b905081810360a0830152610b7f8188610aba565b905081810360c0830152610b938187610aba565b905081810360e0830152610ba78186610aba565b9050818103610100830152610bbc8185610aba565b9050610bcc610120830184610aff565b9b9a5050505050505050505050565b7f4e487b7100000000000000000000000000000000000000000000000000000000600052601160045260246000fd5b6000610c15826109a6565b91507fffffffffffffffffffffffffffffffffffffffffffffffffffffffffffffffff8203610c4757610c46610bdb565b5b600182019050919050565b7f4e487b7100000000000000000000000000000000000000000000000000000000600052602260045260246000fd5b60006002820490506001821680610c9957607f821691505b602082108103610cac57610cab610c52565b5b50919050565b60008190508160005260206000209050919050565b60006020601f8301049050919050565b600082821b905092915050565b600060088302610d147fffffffffffffffffffffffffffffffffffffffffffffffffffffffffffffffff82610cd7565b610d1e8683610cd7565b95508019841693508086168417925050509392505050565b6000819050919050565b6000610d5b610d56610d51846109a6565b610d36565b6109a6565b9050919050565b6000819050919050565b610d7583610d40565b610d89610d8182610d62565b848454610ce4565b825550505050565b600090565b610d9e610d91565b610da9818484610d6c565b505050565b5b81811015610dcd57610dc2600082610d96565b600181019050610daf565b5050565b601f821115610e1257610de381610cb2565b610dec84610cc7565b81016020851015610dfb578190505b610e0f610e0785610cc7565b830182610dae565b50505b505050565b600082821c905092915050565b6000610e3560001984600802610e17565b1980831691505092915050565b6000610e4e8383610e24565b9150826002028217905092915050565b610e6782610a74565b67ffffffffffffffff811115610e8057610e7f610715565b5b610e8a8254610c81565b610e95828285610dd1565b600060209050601f831160018114610ec85760008415610eb6578287015190505b610ec08582610e42565b865550610f28565b601f198416610ed686610cb2565b60005b82811015610efe57848901518255600182019150602085019450602081019050610ed9565b86831015610f1b5784890151610f17601f891682610e24565b8355505b6001600288020188555050505b505050505050565b600061012082019050610f46600083018c6109b0565b610f53602083018b610a65565b8181036040830152610f65818a610aba565b90508181036060830152610f798189610aba565b90508181036080830152610f8d8188610aba565b905081810360a0830152610fa18187610aba565b905081810360c0830152610fb58186610aba565b905081810360e0830152610fc98185610aba565b9050818103610100830152610fde8184610aba565b90509a995050505050505050505056fea2646970667358221220755f33f7f6c44e94d010b927d8b2608621e51128cbfdb7b31fc144f43e92846164736f6c63430008180033",
  "linkReferences": {},
  "deployedLinkReferences": {}
}