{
  "_format": "hh-sol-artifact-1",
  "contractName": "UserContract",
  "sourceName": "contracts/UserContract.sol",
  "abi": [
    {
      "anonymous": false,
      "inputs": [
        {
          "indexed": false,
          "internalType": "uint256",
          "name": "id",
          "type": "uint256"
        },
        {
          "indexed": false,
          "internalType": "address",
          "name": "user",
          "type": "address"
        },
        {
          "indexed": false,
          "internalType": "string",
          "name": "details",
          "type": "string"
        },
        {
          "indexed": false,
          "internalType": "string",
          "name": "evidence",
          "type": "string"
        }
      ],
      "name": "CaseSubmitted",
      "type": "event"
    },
    {
      "inputs": [],
      "name": "caseCount",
      "outputs": [
        {
          "internalType": "uint256",
          "name": "",
          "type": "uint256"
        }
      ],
      "stateMutability": "view",
      "type": "function"
    },
    {
      "inputs": [
        {
          "internalType": "uint256",
          "name": "",
          "type": "uint256"
        }
      ],
      "name": "cases",
      "outputs": [
        {
          "internalType": "uint256",
          "name": "id",
          "type": "uint256"
        },
        {
          "internalType": "address",
          "name": "user",
          "type": "address"
        },
        {
          "internalType": "string",
          "name": "details",
          "type": "string"
        },
        {
          "internalType": "string",
          "name": "evidence",
          "type": "string"
        },
        {
          "internalType": "bool",
          "name": "submitted",
          "type": "bool"
        }
      ],
      "stateMutability": "view",
      "type": "function"
    },
    {
      "inputs": [
        {
          "internalType": "string",
          "name": "_details",
          "type": "string"
        },
        {
          "internalType": "string",
          "name": "_evidence",
          "type": "string"
        }
      ],
      "name": "submitCase",
      "outputs": [],
      "stateMutability": "nonpayable",
      "type": "function"
    }
  ],
  "bytecode": "0x60806040526000805534801561001457600080fd5b50610af6806100246000396000f3fe608060405234801561001057600080fd5b50600436106100415760003560e01c80632066447a14610046578063da2d7e9514610062578063f09790dd14610080575b600080fd5b610060600480360381019061005b91906104d7565b6100b4565b005b61006a610204565b6040516100779190610568565b60405180910390f35b61009a600480360381019061009591906105af565b61020a565b6040516100ab9594939291906106b7565b60405180910390f35b6000808154809291906100c690610747565b91905055506040518060a0016040528060005481526020013373ffffffffffffffffffffffffffffffffffffffff1681526020018381526020018281526020016001151581525060016000805481526020019081526020016000206000820151816000015560208201518160010160006101000a81548173ffffffffffffffffffffffffffffffffffffffff021916908373ffffffffffffffffffffffffffffffffffffffff1602179055506040820151816002019081610187919061099b565b50606082015181600301908161019d919061099b565b5060808201518160040160006101000a81548160ff0219169083151502179055509050507fbbdad112ed262e50a893e689053e69ecf03a1224a45c7e4d0c85f30c817043e36000543384846040516101f89493929190610a6d565b60405180910390a15050565b60005481565b60016020528060005260406000206000915090508060000154908060010160009054906101000a900473ffffffffffffffffffffffffffffffffffffffff1690806002018054610259906107be565b80601f0160208091040260200160405190810160405280929190818152602001828054610285906107be565b80156102d25780601f106102a7576101008083540402835291602001916102d2565b820191906000526020600020905b8154815290600101906020018083116102b557829003601f168201915b5050505050908060030180546102e7906107be565b80601f0160208091040260200160405190810160405280929190818152602001828054610313906107be565b80156103605780601f1061033557610100808354040283529160200191610360565b820191906000526020600020905b81548152906001019060200180831161034357829003601f168201915b5050505050908060040160009054906101000a900460ff16905085565b6000604051905090565b600080fd5b600080fd5b600080fd5b600080fd5b6000601f19601f8301169050919050565b7f4e487b7100000000000000000000000000000000000000000000000000000000600052604160045260246000fd5b6103e48261039b565b810181811067ffffffffffffffff82111715610403576104026103ac565b5b80604052505050565b600061041661037d565b905061042282826103db565b919050565b600067ffffffffffffffff821115610442576104416103ac565b5b61044b8261039b565b9050602081019050919050565b82818337600083830152505050565b600061047a61047584610427565b61040c565b90508281526020810184848401111561049657610495610396565b5b6104a1848285610458565b509392505050565b600082601f8301126104be576104bd610391565b5b81356104ce848260208601610467565b91505092915050565b600080604083850312156104ee576104ed610387565b5b600083013567ffffffffffffffff81111561050c5761050b61038c565b5b610518858286016104a9565b925050602083013567ffffffffffffffff8111156105395761053861038c565b5b610545858286016104a9565b9150509250929050565b6000819050919050565b6105628161054f565b82525050565b600060208201905061057d6000830184610559565b92915050565b61058c8161054f565b811461059757600080fd5b50565b6000813590506105a981610583565b92915050565b6000602082840312156105c5576105c4610387565b5b60006105d38482850161059a565b91505092915050565b600073ffffffffffffffffffffffffffffffffffffffff82169050919050565b6000610607826105dc565b9050919050565b610617816105fc565b82525050565b600081519050919050565b600082825260208201905092915050565b60005b8381101561065757808201518184015260208101905061063c565b60008484015250505050565b600061066e8261061d565b6106788185610628565b9350610688818560208601610639565b6106918161039b565b840191505092915050565b60008115159050919050565b6106b18161069c565b82525050565b600060a0820190506106cc6000830188610559565b6106d9602083018761060e565b81810360408301526106eb8186610663565b905081810360608301526106ff8185610663565b905061070e60808301846106a8565b9695505050505050565b7f4e487b7100000000000000000000000000000000000000000000000000000000600052601160045260246000fd5b60006107528261054f565b91507fffffffffffffffffffffffffffffffffffffffffffffffffffffffffffffffff820361078457610783610718565b5b600182019050919050565b7f4e487b7100000000000000000000000000000000000000000000000000000000600052602260045260246000fd5b600060028204905060018216806107d657607f821691505b6020821081036107e9576107e861078f565b5b50919050565b60008190508160005260206000209050919050565b60006020601f8301049050919050565b600082821b905092915050565b6000600883026108517fffffffffffffffffffffffffffffffffffffffffffffffffffffffffffffffff82610814565b61085b8683610814565b95508019841693508086168417925050509392505050565b6000819050919050565b600061089861089361088e8461054f565b610873565b61054f565b9050919050565b6000819050919050565b6108b28361087d565b6108c66108be8261089f565b848454610821565b825550505050565b600090565b6108db6108ce565b6108e68184846108a9565b505050565b5b8181101561090a576108ff6000826108d3565b6001810190506108ec565b5050565b601f82111561094f57610920816107ef565b61092984610804565b81016020851015610938578190505b61094c61094485610804565b8301826108eb565b50505b505050565b600082821c905092915050565b600061097260001984600802610954565b1980831691505092915050565b600061098b8383610961565b9150826002028217905092915050565b6109a48261061d565b67ffffffffffffffff8111156109bd576109bc6103ac565b5b6109c782546107be565b6109d282828561090e565b600060209050601f831160018114610a0557600084156109f3578287015190505b6109fd858261097f565b865550610a65565b601f198416610a13866107ef565b60005b82811015610a3b57848901518255600182019150602085019450602081019050610a16565b86831015610a585784890151610a54601f891682610961565b8355505b6001600288020188555050505b505050505050565b6000608082019050610a826000830187610559565b610a8f602083018661060e565b8181036040830152610aa18185610663565b90508181036060830152610ab58184610663565b90509594505050505056fea2646970667358221220ce5052d70d6a7898756851b9f9dea4710c4733b095635ebc606a951b4a12b24564736f6c63430008180033",
  "linkReferences": {},
  "deployedLinkReferences": {}
}