{
  "contracts/UserContract.sol": {
    "UserContract": {
      "abi": [
        {
          "anonymous": false,
          "inputs": [
            {
              "indexed": false,
              "internalType": "uint256",
              "name": "id",
              "type": "uint256"
            },
            {
              "indexed": false,
              "internalType": "address",
              "name": "user",
              "type": "address"
            },
            {
              "indexed": false,
              "internalType": "string",
              "name": "details",
              "type": "string"
            },
            {
              "indexed": false,
              "internalType": "string",
              "name": "evidence",
              "type": "string"
            }
          ],
          "name": "CaseSubmitted",
          "type": "event"
        },
        {
          "inputs": [],
          "name": "caseCount",
          "outputs": [
            {
              "internalType": "uint256",
              "name": "",
              "type": "uint256"
            }
          ],
          "stateMutability": "view",
          "type": "function"
        },
        {
          "inputs": [
            {
              "internalType": "uint256",
              "name": "",
              "type": "uint256"
            }
          ],
          "name": "cases",
          "outputs": [
            {
              "internalType": "uint256",
              "name": "id",
              "type": "uint256"
            },
            {
              "internalType": "address",
              "name": "user",
              "type": "address"
            },
            {
              "internalType": "string",
              "name": "details",
              "type": "string"
            },
            {
              "internalType": "string",
              "name": "evidence",
              "type": "string"
            },
            {
              "internalType": "bool",
              "name": "submitted",
              "type": "bool"
            }
          ],
          "stateMutability": "view",
          "type": "function"
        },
        {
          "inputs": [
            {
              "internalType": "string",
              "name": "_details",
              "type": "string"
            },
            {
              "internalType": "string",
              "name": "_evidence",
              "type": "string"
            }
          ],
          "name": "submitCase",
          "outputs": [],
          "stateMutability": "nonpayable",
          "type": "function"
        }
      ],
      "evm": {
        "bytecode": {
          "linkReferences": {},
          "object": "60806040526000805534801561001457600080fd5b50610af6806100246000396000f3fe608060405234801561001057600080fd5b50600436106100415760003560e01c80632066447a14610046578063da2d7e9514610062578063f09790dd14610080575b600080fd5b610060600480360381019061005b91906104d7565b6100b4565b005b61006a610204565b6040516100779190610568565b60405180910390f35b61009a600480360381019061009591906105af565b61020a565b6040516100ab9594939291906106b7565b60405180910390f35b6000808154809291906100c690610747565b91905055506040518060a0016040528060005481526020013373ffffffffffffffffffffffffffffffffffffffff1681526020018381526020018281526020016001151581525060016000805481526020019081526020016000206000820151816000015560208201518160010160006101000a81548173ffffffffffffffffffffffffffffffffffffffff021916908373ffffffffffffffffffffffffffffffffffffffff1602179055506040820151816002019081610187919061099b565b50606082015181600301908161019d919061099b565b5060808201518160040160006101000a81548160ff0219169083151502179055509050507fbbdad112ed262e50a893e689053e69ecf03a1224a45c7e4d0c85f30c817043e36000543384846040516101f89493929190610a6d565b60405180910390a15050565b60005481565b60016020528060005260406000206000915090508060000154908060010160009054906101000a900473ffffffffffffffffffffffffffffffffffffffff1690806002018054610259906107be565b80601f0160208091040260200160405190810160405280929190818152602001828054610285906107be565b80156102d25780601f106102a7576101008083540402835291602001916102d2565b820191906000526020600020905b8154815290600101906020018083116102b557829003601f168201915b5050505050908060030180546102e7906107be565b80601f0160208091040260200160405190810160405280929190818152602001828054610313906107be565b80156103605780601f1061033557610100808354040283529160200191610360565b820191906000526020600020905b81548152906001019060200180831161034357829003601f168201915b5050505050908060040160009054906101000a900460ff16905085565b6000604051905090565b600080fd5b600080fd5b600080fd5b600080fd5b6000601f19601f8301169050919050565b7f4e487b7100000000000000000000000000000000000000000000000000000000600052604160045260246000fd5b6103e48261039b565b810181811067ffffffffffffffff82111715610403576104026103ac565b5b80604052505050565b600061041661037d565b905061042282826103db565b919050565b600067ffffffffffffffff821115610442576104416103ac565b5b61044b8261039b565b9050602081019050919050565b82818337600083830152505050565b600061047a61047584610427565b61040c565b90508281526020810184848401111561049657610495610396565b5b6104a1848285610458565b509392505050565b600082601f8301126104be576104bd610391565b5b81356104ce848260208601610467565b91505092915050565b600080604083850312156104ee576104ed610387565b5b600083013567ffffffffffffffff81111561050c5761050b61038c565b5b610518858286016104a9565b925050602083013567ffffffffffffffff8111156105395761053861038c565b5b610545858286016104a9565b9150509250929050565b6000819050919050565b6105628161054f565b82525050565b600060208201905061057d6000830184610559565b92915050565b61058c8161054f565b811461059757600080fd5b50565b6000813590506105a981610583565b92915050565b6000602082840312156105c5576105c4610387565b5b60006105d38482850161059a565b91505092915050565b600073ffffffffffffffffffffffffffffffffffffffff82169050919050565b6000610607826105dc565b9050919050565b610617816105fc565b82525050565b600081519050919050565b600082825260208201905092915050565b60005b8381101561065757808201518184015260208101905061063c565b60008484015250505050565b600061066e8261061d565b6106788185610628565b9350610688818560208601610639565b6106918161039b565b840191505092915050565b60008115159050919050565b6106b18161069c565b82525050565b600060a0820190506106cc6000830188610559565b6106d9602083018761060e565b81810360408301526106eb8186610663565b905081810360608301526106ff8185610663565b905061070e60808301846106a8565b9695505050505050565b7f4e487b7100000000000000000000000000000000000000000000000000000000600052601160045260246000fd5b60006107528261054f565b91507fffffffffffffffffffffffffffffffffffffffffffffffffffffffffffffffff820361078457610783610718565b5b600182019050919050565b7f4e487b7100000000000000000000000000000000000000000000000000000000600052602260045260246000fd5b600060028204905060018216806107d657607f821691505b6020821081036107e9576107e861078f565b5b50919050565b60008190508160005260206000209050919050565b60006020601f8301049050919050565b600082821b905092915050565b6000600883026108517fffffffffffffffffffffffffffffffffffffffffffffffffffffffffffffffff82610814565b61085b8683610814565b95508019841693508086168417925050509392505050565b6000819050919050565b600061089861089361088e8461054f565b610873565b61054f565b9050919050565b6000819050919050565b6108b28361087d565b6108c66108be8261089f565b848454610821565b825550505050565b600090565b6108db6108ce565b6108e68184846108a9565b505050565b5b8181101561090a576108ff6000826108d3565b6001810190506108ec565b5050565b601f82111561094f57610920816107ef565b61092984610804565b81016020851015610938578190505b61094c61094485610804565b8301826108eb565b50505b505050565b600082821c905092915050565b600061097260001984600802610954565b1980831691505092915050565b600061098b8383610961565b9150826002028217905092915050565b6109a48261061d565b67ffffffffffffffff8111156109bd576109bc6103ac565b5b6109c782546107be565b6109d282828561090e565b600060209050601f831160018114610a0557600084156109f3578287015190505b6109fd858261097f565b865550610a65565b601f198416610a13866107ef565b60005b82811015610a3b57848901518255600182019150602085019450602081019050610a16565b86831015610a585784890151610a54601f891682610961565b8355505b6001600288020188555050505b505050505050565b6000608082019050610a826000830187610559565b610a8f602083018661060e565b8181036040830152610aa18185610663565b90508181036060830152610ab58184610663565b90509594505050505056fea2646970667358221220ce5052d70d6a7898756851b9f9dea4710c4733b095635ebc606a951b4a12b24564736f6c63430008180033",
          "opcodes": "PUSH1 0x80 PUSH1 0x40 MSTORE PUSH1 0x0 DUP1 SSTORE CALLVALUE DUP1 ISZERO PUSH2 0x14 JUMPI PUSH1 0x0 DUP1 REVERT JUMPDEST POP PUSH2 0xAF6 DUP1 PUSH2 0x24 PUSH1 0x0 CODECOPY PUSH1 0x0 RETURN INVALID PUSH1 0x80 PUSH1 0x40 MSTORE CALLVALUE DUP1 ISZERO PUSH2 0x10 JUMPI PUSH1 0x0 DUP1 REVERT JUMPDEST POP PUSH1 0x4 CALLDATASIZE LT PUSH2 0x41 JUMPI PUSH1 0x0 CALLDATALOAD PUSH1 0xE0 SHR DUP1 PUSH4 0x2066447A EQ PUSH2 0x46 JUMPI DUP1 PUSH4 0xDA2D7E95 EQ PUSH2 0x62 JUMPI DUP1 PUSH4 0xF09790DD EQ PUSH2 0x80 JUMPI JUMPDEST PUSH1 0x0 DUP1 REVERT JUMPDEST PUSH2 0x60 PUSH1 0x4 DUP1 CALLDATASIZE SUB DUP2 ADD SWAP1 PUSH2 0x5B SWAP2 SWAP1 PUSH2 0x4D7 JUMP JUMPDEST PUSH2 0xB4 JUMP JUMPDEST STOP JUMPDEST PUSH2 0x6A PUSH2 0x204 JUMP JUMPDEST PUSH1 0x40 MLOAD PUSH2 0x77 SWAP2 SWAP1 PUSH2 0x568 JUMP JUMPDEST PUSH1 0x40 MLOAD DUP1 SWAP2 SUB SWAP1 RETURN JUMPDEST PUSH2 0x9A PUSH1 0x4 DUP1 CALLDATASIZE SUB DUP2 ADD SWAP1 PUSH2 0x95 SWAP2 SWAP1 PUSH2 0x5AF JUMP JUMPDEST PUSH2 0x20A JUMP JUMPDEST PUSH1 0x40 MLOAD PUSH2 0xAB SWAP6 SWAP5 SWAP4 SWAP3 SWAP2 SWAP1 PUSH2 0x6B7 JUMP JUMPDEST PUSH1 0x40 MLOAD DUP1 SWAP2 SUB SWAP1 RETURN JUMPDEST PUSH1 0x0 DUP1 DUP2 SLOAD DUP1 SWAP3 SWAP2 SWAP1 PUSH2 0xC6 SWAP1 PUSH2 0x747 JUMP JUMPDEST SWAP2 SWAP1 POP SSTORE POP PUSH1 0x40 MLOAD DUP1 PUSH1 0xA0 ADD PUSH1 0x40 MSTORE DUP1 PUSH1 0x0 SLOAD DUP2 MSTORE PUSH1 0x20 ADD CALLER PUSH20 0xFFFFFFFFFFFFFFFFFFFFFFFFFFFFFFFFFFFFFFFF AND DUP2 MSTORE PUSH1 0x20 ADD DUP4 DUP2 MSTORE PUSH1 0x20 ADD DUP3 DUP2 MSTORE PUSH1 0x20 ADD PUSH1 0x1 ISZERO ISZERO DUP2 MSTORE POP PUSH1 0x1 PUSH1 0x0 DUP1 SLOAD DUP2 MSTORE PUSH1 0x20 ADD SWAP1 DUP2 MSTORE PUSH1 0x20 ADD PUSH1 0x0 KECCAK256 PUSH1 0x0 DUP3 ADD MLOAD DUP2 PUSH1 0x0 ADD SSTORE PUSH1 0x20 DUP3 ADD MLOAD DUP2 PUSH1 0x1 ADD PUSH1 0x0 PUSH2 0x100 EXP DUP2 SLOAD DUP2 PUSH20 0xFFFFFFFFFFFFFFFFFFFFFFFFFFFFFFFFFFFFFFFF MUL NOT AND SWAP1 DUP4 PUSH20 0xFFFFFFFFFFFFFFFFFFFFFFFFFFFFFFFFFFFFFFFF AND MUL OR SWAP1 SSTORE POP PUSH1 0x40 DUP3 ADD MLOAD DUP2 PUSH1 0x2 ADD SWAP1 DUP2 PUSH2 0x187 SWAP2 SWAP1 PUSH2 0x99B JUMP JUMPDEST POP PUSH1 0x60 DUP3 ADD MLOAD DUP2 PUSH1 0x3 ADD SWAP1 DUP2 PUSH2 0x19D SWAP2 SWAP1 PUSH2 0x99B JUMP JUMPDEST POP PUSH1 0x80 DUP3 ADD MLOAD DUP2 PUSH1 0x4 ADD PUSH1 0x0 PUSH2 0x100 EXP DUP2 SLOAD DUP2 PUSH1 0xFF MUL NOT AND SWAP1 DUP4 ISZERO ISZERO MUL OR SWAP1 SSTORE POP SWAP1 POP POP PUSH32 0xBBDAD112ED262E50A893E689053E69ECF03A1224A45C7E4D0C85F30C817043E3 PUSH1 0x0 SLOAD CALLER DUP5 DUP5 PUSH1 0x40 MLOAD PUSH2 0x1F8 SWAP5 SWAP4 SWAP3 SWAP2 SWAP1 PUSH2 0xA6D JUMP JUMPDEST PUSH1 0x40 MLOAD DUP1 SWAP2 SUB SWAP1 LOG1 POP POP JUMP JUMPDEST PUSH1 0x0 SLOAD DUP2 JUMP JUMPDEST PUSH1 0x1 PUSH1 0x20 MSTORE DUP1 PUSH1 0x0 MSTORE PUSH1 0x40 PUSH1 0x0 KECCAK256 PUSH1 0x0 SWAP2 POP SWAP1 POP DUP1 PUSH1 0x0 ADD SLOAD SWAP1 DUP1 PUSH1 0x1 ADD PUSH1 0x0 SWAP1 SLOAD SWAP1 PUSH2 0x100 EXP SWAP1 DIV PUSH20 0xFFFFFFFFFFFFFFFFFFFFFFFFFFFFFFFFFFFFFFFF AND SWAP1 DUP1 PUSH1 0x2 ADD DUP1 SLOAD PUSH2 0x259 SWAP1 PUSH2 0x7BE JUMP JUMPDEST DUP1 PUSH1 0x1F ADD PUSH1 0x20 DUP1 SWAP2 DIV MUL PUSH1 0x20 ADD PUSH1 0x40 MLOAD SWAP1 DUP2 ADD PUSH1 0x40 MSTORE DUP1 SWAP3 SWAP2 SWAP1 DUP2 DUP2 MSTORE PUSH1 0x20 ADD DUP3 DUP1 SLOAD PUSH2 0x285 SWAP1 PUSH2 0x7BE JUMP JUMPDEST DUP1 ISZERO PUSH2 0x2D2 JUMPI DUP1 PUSH1 0x1F LT PUSH2 0x2A7 JUMPI PUSH2 0x100 DUP1 DUP4 SLOAD DIV MUL DUP4 MSTORE SWAP2 PUSH1 0x20 ADD SWAP2 PUSH2 0x2D2 JUMP JUMPDEST DUP3 ADD SWAP2 SWAP1 PUSH1 0x0 MSTORE PUSH1 0x20 PUSH1 0x0 KECCAK256 SWAP1 JUMPDEST DUP2 SLOAD DUP2 MSTORE SWAP1 PUSH1 0x1 ADD SWAP1 PUSH1 0x20 ADD DUP1 DUP4 GT PUSH2 0x2B5 JUMPI DUP3 SWAP1 SUB PUSH1 0x1F AND DUP3 ADD SWAP2 JUMPDEST POP POP POP POP POP SWAP1 DUP1 PUSH1 0x3 ADD DUP1 SLOAD PUSH2 0x2E7 SWAP1 PUSH2 0x7BE JUMP JUMPDEST DUP1 PUSH1 0x1F ADD PUSH1 0x20 DUP1 SWAP2 DIV MUL PUSH1 0x20 ADD PUSH1 0x40 MLOAD SWAP1 DUP2 ADD PUSH1 0x40 MSTORE DUP1 SWAP3 SWAP2 SWAP1 DUP2 DUP2 MSTORE PUSH1 0x20 ADD DUP3 DUP1 SLOAD PUSH2 0x313 SWAP1 PUSH2 0x7BE JUMP JUMPDEST DUP1 ISZERO PUSH2 0x360 JUMPI DUP1 PUSH1 0x1F LT PUSH2 0x335 JUMPI PUSH2 0x100 DUP1 DUP4 SLOAD DIV MUL DUP4 MSTORE SWAP2 PUSH1 0x20 ADD SWAP2 PUSH2 0x360 JUMP JUMPDEST DUP3 ADD SWAP2 SWAP1 PUSH1 0x0 MSTORE PUSH1 0x20 PUSH1 0x0 KECCAK256 SWAP1 JUMPDEST DUP2 SLOAD DUP2 MSTORE SWAP1 PUSH1 0x1 ADD SWAP1 PUSH1 0x20 ADD DUP1 DUP4 GT PUSH2 0x343 JUMPI DUP3 SWAP1 SUB PUSH1 0x1F AND DUP3 ADD SWAP2 JUMPDEST POP POP POP POP POP SWAP1 DUP1 PUSH1 0x4 ADD PUSH1 0x0 SWAP1 SLOAD SWAP1 PUSH2 0x100 EXP SWAP1 DIV PUSH1 0xFF AND SWAP1 POP DUP6 JUMP JUMPDEST PUSH1 0x0 PUSH1 0x40 MLOAD SWAP1 POP SWAP1 JUMP JUMPDEST PUSH1 0x0 DUP1 REVERT JUMPDEST PUSH1 0x0 DUP1 REVERT JUMPDEST PUSH1 0x0 DUP1 REVERT JUMPDEST PUSH1 0x0 DUP1 REVERT JUMPDEST PUSH1 0x0 PUSH1 0x1F NOT PUSH1 0x1F DUP4 ADD AND SWAP1 POP SWAP2 SWAP1 POP JUMP JUMPDEST PUSH32 0x4E487B7100000000000000000000000000000000000000000000000000000000 PUSH1 0x0 MSTORE PUSH1 0x41 PUSH1 0x4 MSTORE PUSH1 0x24 PUSH1 0x0 REVERT JUMPDEST PUSH2 0x3E4 DUP3 PUSH2 0x39B JUMP JUMPDEST DUP2 ADD DUP2 DUP2 LT PUSH8 0xFFFFFFFFFFFFFFFF DUP3 GT OR ISZERO PUSH2 0x403 JUMPI PUSH2 0x402 PUSH2 0x3AC JUMP JUMPDEST JUMPDEST DUP1 PUSH1 0x40 MSTORE POP POP POP JUMP JUMPDEST PUSH1 0x0 PUSH2 0x416 PUSH2 0x37D JUMP JUMPDEST SWAP1 POP PUSH2 0x422 DUP3 DUP3 PUSH2 0x3DB JUMP JUMPDEST SWAP2 SWAP1 POP JUMP JUMPDEST PUSH1 0x0 PUSH8 0xFFFFFFFFFFFFFFFF DUP3 GT ISZERO PUSH2 0x442 JUMPI PUSH2 0x441 PUSH2 0x3AC JUMP JUMPDEST JUMPDEST PUSH2 0x44B DUP3 PUSH2 0x39B JUMP JUMPDEST SWAP1 POP PUSH1 0x20 DUP2 ADD SWAP1 POP SWAP2 SWAP1 POP JUMP JUMPDEST DUP3 DUP2 DUP4 CALLDATACOPY PUSH1 0x0 DUP4 DUP4 ADD MSTORE POP POP POP JUMP JUMPDEST PUSH1 0x0 PUSH2 0x47A PUSH2 0x475 DUP5 PUSH2 0x427 JUMP JUMPDEST PUSH2 0x40C JUMP JUMPDEST SWAP1 POP DUP3 DUP2 MSTORE PUSH1 0x20 DUP2 ADD DUP5 DUP5 DUP5 ADD GT ISZERO PUSH2 0x496 JUMPI PUSH2 0x495 PUSH2 0x396 JUMP JUMPDEST JUMPDEST PUSH2 0x4A1 DUP5 DUP3 DUP6 PUSH2 0x458 JUMP JUMPDEST POP SWAP4 SWAP3 POP POP POP JUMP JUMPDEST PUSH1 0x0 DUP3 PUSH1 0x1F DUP4 ADD SLT PUSH2 0x4BE JUMPI PUSH2 0x4BD PUSH2 0x391 JUMP JUMPDEST JUMPDEST DUP2 CALLDATALOAD PUSH2 0x4CE DUP5 DUP3 PUSH1 0x20 DUP7 ADD PUSH2 0x467 JUMP JUMPDEST SWAP2 POP POP SWAP3 SWAP2 POP POP JUMP JUMPDEST PUSH1 0x0 DUP1 PUSH1 0x40 DUP4 DUP6 SUB SLT ISZERO PUSH2 0x4EE JUMPI PUSH2 0x4ED PUSH2 0x387 JUMP JUMPDEST JUMPDEST PUSH1 0x0 DUP4 ADD CALLDATALOAD PUSH8 0xFFFFFFFFFFFFFFFF DUP2 GT ISZERO PUSH2 0x50C JUMPI PUSH2 0x50B PUSH2 0x38C JUMP JUMPDEST JUMPDEST PUSH2 0x518 DUP6 DUP3 DUP7 ADD PUSH2 0x4A9 JUMP JUMPDEST SWAP3 POP POP PUSH1 0x20 DUP4 ADD CALLDATALOAD PUSH8 0xFFFFFFFFFFFFFFFF DUP2 GT ISZERO PUSH2 0x539 JUMPI PUSH2 0x538 PUSH2 0x38C JUMP JUMPDEST JUMPDEST PUSH2 0x545 DUP6 DUP3 DUP7 ADD PUSH2 0x4A9 JUMP JUMPDEST SWAP2 POP POP SWAP3 POP SWAP3 SWAP1 POP JUMP JUMPDEST PUSH1 0x0 DUP2 SWAP1 POP SWAP2 SWAP1 POP JUMP JUMPDEST PUSH2 0x562 DUP2 PUSH2 0x54F JUMP JUMPDEST DUP3 MSTORE POP POP JUMP JUMPDEST PUSH1 0x0 PUSH1 0x20 DUP3 ADD SWAP1 POP PUSH2 0x57D PUSH1 0x0 DUP4 ADD DUP5 PUSH2 0x559 JUMP JUMPDEST SWAP3 SWAP2 POP POP JUMP JUMPDEST PUSH2 0x58C DUP2 PUSH2 0x54F JUMP JUMPDEST DUP2 EQ PUSH2 0x597 JUMPI PUSH1 0x0 DUP1 REVERT JUMPDEST POP JUMP JUMPDEST PUSH1 0x0 DUP2 CALLDATALOAD SWAP1 POP PUSH2 0x5A9 DUP2 PUSH2 0x583 JUMP JUMPDEST SWAP3 SWAP2 POP POP JUMP JUMPDEST PUSH1 0x0 PUSH1 0x20 DUP3 DUP5 SUB SLT ISZERO PUSH2 0x5C5 JUMPI PUSH2 0x5C4 PUSH2 0x387 JUMP JUMPDEST JUMPDEST PUSH1 0x0 PUSH2 0x5D3 DUP5 DUP3 DUP6 ADD PUSH2 0x59A JUMP JUMPDEST SWAP2 POP POP SWAP3 SWAP2 POP POP JUMP JUMPDEST PUSH1 0x0 PUSH20 0xFFFFFFFFFFFFFFFFFFFFFFFFFFFFFFFFFFFFFFFF DUP3 AND SWAP1 POP SWAP2 SWAP1 POP JUMP JUMPDEST PUSH1 0x0 PUSH2 0x607 DUP3 PUSH2 0x5DC JUMP JUMPDEST SWAP1 POP SWAP2 SWAP1 POP JUMP JUMPDEST PUSH2 0x617 DUP2 PUSH2 0x5FC JUMP JUMPDEST DUP3 MSTORE POP POP JUMP JUMPDEST PUSH1 0x0 DUP2 MLOAD SWAP1 POP SWAP2 SWAP1 POP JUMP JUMPDEST PUSH1 0x0 DUP3 DUP3 MSTORE PUSH1 0x20 DUP3 ADD SWAP1 POP SWAP3 SWAP2 POP POP JUMP JUMPDEST PUSH1 0x0 JUMPDEST DUP4 DUP2 LT ISZERO PUSH2 0x657 JUMPI DUP1 DUP3 ADD MLOAD DUP2 DUP5 ADD MSTORE PUSH1 0x20 DUP2 ADD SWAP1 POP PUSH2 0x63C JUMP JUMPDEST PUSH1 0x0 DUP5 DUP5 ADD MSTORE POP POP POP POP JUMP JUMPDEST PUSH1 0x0 PUSH2 0x66E DUP3 PUSH2 0x61D JUMP JUMPDEST PUSH2 0x678 DUP2 DUP6 PUSH2 0x628 JUMP JUMPDEST SWAP4 POP PUSH2 0x688 DUP2 DUP6 PUSH1 0x20 DUP7 ADD PUSH2 0x639 JUMP JUMPDEST PUSH2 0x691 DUP2 PUSH2 0x39B JUMP JUMPDEST DUP5 ADD SWAP2 POP POP SWAP3 SWAP2 POP POP JUMP JUMPDEST PUSH1 0x0 DUP2 ISZERO ISZERO SWAP1 POP SWAP2 SWAP1 POP JUMP JUMPDEST PUSH2 0x6B1 DUP2 PUSH2 0x69C JUMP JUMPDEST DUP3 MSTORE POP POP JUMP JUMPDEST PUSH1 0x0 PUSH1 0xA0 DUP3 ADD SWAP1 POP PUSH2 0x6CC PUSH1 0x0 DUP4 ADD DUP9 PUSH2 0x559 JUMP JUMPDEST PUSH2 0x6D9 PUSH1 0x20 DUP4 ADD DUP8 PUSH2 0x60E JUMP JUMPDEST DUP2 DUP2 SUB PUSH1 0x40 DUP4 ADD MSTORE PUSH2 0x6EB DUP2 DUP7 PUSH2 0x663 JUMP JUMPDEST SWAP1 POP DUP2 DUP2 SUB PUSH1 0x60 DUP4 ADD MSTORE PUSH2 0x6FF DUP2 DUP6 PUSH2 0x663 JUMP JUMPDEST SWAP1 POP PUSH2 0x70E PUSH1 0x80 DUP4 ADD DUP5 PUSH2 0x6A8 JUMP JUMPDEST SWAP7 SWAP6 POP POP POP POP POP POP JUMP JUMPDEST PUSH32 0x4E487B7100000000000000000000000000000000000000000000000000000000 PUSH1 0x0 MSTORE PUSH1 0x11 PUSH1 0x4 MSTORE PUSH1 0x24 PUSH1 0x0 REVERT JUMPDEST PUSH1 0x0 PUSH2 0x752 DUP3 PUSH2 0x54F JUMP JUMPDEST SWAP2 POP PUSH32 0xFFFFFFFFFFFFFFFFFFFFFFFFFFFFFFFFFFFFFFFFFFFFFFFFFFFFFFFFFFFFFFFF DUP3 SUB PUSH2 0x784 JUMPI PUSH2 0x783 PUSH2 0x718 JUMP JUMPDEST JUMPDEST PUSH1 0x1 DUP3 ADD SWAP1 POP SWAP2 SWAP1 POP JUMP JUMPDEST PUSH32 0x4E487B7100000000000000000000000000000000000000000000000000000000 PUSH1 0x0 MSTORE PUSH1 0x22 PUSH1 0x4 MSTORE PUSH1 0x24 PUSH1 0x0 REVERT JUMPDEST PUSH1 0x0 PUSH1 0x2 DUP3 DIV SWAP1 POP PUSH1 0x1 DUP3 AND DUP1 PUSH2 0x7D6 JUMPI PUSH1 0x7F DUP3 AND SWAP2 POP JUMPDEST PUSH1 0x20 DUP3 LT DUP2 SUB PUSH2 0x7E9 JUMPI PUSH2 0x7E8 PUSH2 0x78F JUMP JUMPDEST JUMPDEST POP SWAP2 SWAP1 POP JUMP JUMPDEST PUSH1 0x0 DUP2 SWAP1 POP DUP2 PUSH1 0x0 MSTORE PUSH1 0x20 PUSH1 0x0 KECCAK256 SWAP1 POP SWAP2 SWAP1 POP JUMP JUMPDEST PUSH1 0x0 PUSH1 0x20 PUSH1 0x1F DUP4 ADD DIV SWAP1 POP SWAP2 SWAP1 POP JUMP JUMPDEST PUSH1 0x0 DUP3 DUP3 SHL SWAP1 POP SWAP3 SWAP2 POP POP JUMP JUMPDEST PUSH1 0x0 PUSH1 0x8 DUP4 MUL PUSH2 0x851 PUSH32 0xFFFFFFFFFFFFFFFFFFFFFFFFFFFFFFFFFFFFFFFFFFFFFFFFFFFFFFFFFFFFFFFF DUP3 PUSH2 0x814 JUMP JUMPDEST PUSH2 0x85B DUP7 DUP4 PUSH2 0x814 JUMP JUMPDEST SWAP6 POP DUP1 NOT DUP5 AND SWAP4 POP DUP1 DUP7 AND DUP5 OR SWAP3 POP POP POP SWAP4 SWAP3 POP POP POP JUMP JUMPDEST PUSH1 0x0 DUP2 SWAP1 POP SWAP2 SWAP1 POP JUMP JUMPDEST PUSH1 0x0 PUSH2 0x898 PUSH2 0x893 PUSH2 0x88E DUP5 PUSH2 0x54F JUMP JUMPDEST PUSH2 0x873 JUMP JUMPDEST PUSH2 0x54F JUMP JUMPDEST SWAP1 POP SWAP2 SWAP1 POP JUMP JUMPDEST PUSH1 0x0 DUP2 SWAP1 POP SWAP2 SWAP1 POP JUMP JUMPDEST PUSH2 0x8B2 DUP4 PUSH2 0x87D JUMP JUMPDEST PUSH2 0x8C6 PUSH2 0x8BE DUP3 PUSH2 0x89F JUMP JUMPDEST DUP5 DUP5 SLOAD PUSH2 0x821 JUMP JUMPDEST DUP3 SSTORE POP POP POP POP JUMP JUMPDEST PUSH1 0x0 SWAP1 JUMP JUMPDEST PUSH2 0x8DB PUSH2 0x8CE JUMP JUMPDEST PUSH2 0x8E6 DUP2 DUP5 DUP5 PUSH2 0x8A9 JUMP JUMPDEST POP POP POP JUMP JUMPDEST JUMPDEST DUP2 DUP2 LT ISZERO PUSH2 0x90A JUMPI PUSH2 0x8FF PUSH1 0x0 DUP3 PUSH2 0x8D3 JUMP JUMPDEST PUSH1 0x1 DUP2 ADD SWAP1 POP PUSH2 0x8EC JUMP JUMPDEST POP POP JUMP JUMPDEST PUSH1 0x1F DUP3 GT ISZERO PUSH2 0x94F JUMPI PUSH2 0x920 DUP2 PUSH2 0x7EF JUMP JUMPDEST PUSH2 0x929 DUP5 PUSH2 0x804 JUMP JUMPDEST DUP2 ADD PUSH1 0x20 DUP6 LT ISZERO PUSH2 0x938 JUMPI DUP2 SWAP1 POP JUMPDEST PUSH2 0x94C PUSH2 0x944 DUP6 PUSH2 0x804 JUMP JUMPDEST DUP4 ADD DUP3 PUSH2 0x8EB JUMP JUMPDEST POP POP JUMPDEST POP POP POP JUMP JUMPDEST PUSH1 0x0 DUP3 DUP3 SHR SWAP1 POP SWAP3 SWAP2 POP POP JUMP JUMPDEST PUSH1 0x0 PUSH2 0x972 PUSH1 0x0 NOT DUP5 PUSH1 0x8 MUL PUSH2 0x954 JUMP JUMPDEST NOT DUP1 DUP4 AND SWAP2 POP POP SWAP3 SWAP2 POP POP JUMP JUMPDEST PUSH1 0x0 PUSH2 0x98B DUP4 DUP4 PUSH2 0x961 JUMP JUMPDEST SWAP2 POP DUP3 PUSH1 0x2 MUL DUP3 OR SWAP1 POP SWAP3 SWAP2 POP POP JUMP JUMPDEST PUSH2 0x9A4 DUP3 PUSH2 0x61D JUMP JUMPDEST PUSH8 0xFFFFFFFFFFFFFFFF DUP2 GT ISZERO PUSH2 0x9BD JUMPI PUSH2 0x9BC PUSH2 0x3AC JUMP JUMPDEST JUMPDEST PUSH2 0x9C7 DUP3 SLOAD PUSH2 0x7BE JUMP JUMPDEST PUSH2 0x9D2 DUP3 DUP3 DUP6 PUSH2 0x90E JUMP JUMPDEST PUSH1 0x0 PUSH1 0x20 SWAP1 POP PUSH1 0x1F DUP4 GT PUSH1 0x1 DUP2 EQ PUSH2 0xA05 JUMPI PUSH1 0x0 DUP5 ISZERO PUSH2 0x9F3 JUMPI DUP3 DUP8 ADD MLOAD SWAP1 POP JUMPDEST PUSH2 0x9FD DUP6 DUP3 PUSH2 0x97F JUMP JUMPDEST DUP7 SSTORE POP PUSH2 0xA65 JUMP JUMPDEST PUSH1 0x1F NOT DUP5 AND PUSH2 0xA13 DUP7 PUSH2 0x7EF JUMP JUMPDEST PUSH1 0x0 JUMPDEST DUP3 DUP2 LT ISZERO PUSH2 0xA3B JUMPI DUP5 DUP10 ADD MLOAD DUP3 SSTORE PUSH1 0x1 DUP3 ADD SWAP2 POP PUSH1 0x20 DUP6 ADD SWAP5 POP PUSH1 0x20 DUP2 ADD SWAP1 POP PUSH2 0xA16 JUMP JUMPDEST DUP7 DUP4 LT ISZERO PUSH2 0xA58 JUMPI DUP5 DUP10 ADD MLOAD PUSH2 0xA54 PUSH1 0x1F DUP10 AND DUP3 PUSH2 0x961 JUMP JUMPDEST DUP4 SSTORE POP JUMPDEST PUSH1 0x1 PUSH1 0x2 DUP9 MUL ADD DUP9 SSTORE POP POP POP JUMPDEST POP POP POP POP POP POP JUMP JUMPDEST PUSH1 0x0 PUSH1 0x80 DUP3 ADD SWAP1 POP PUSH2 0xA82 PUSH1 0x0 DUP4 ADD DUP8 PUSH2 0x559 JUMP JUMPDEST PUSH2 0xA8F PUSH1 0x20 DUP4 ADD DUP7 PUSH2 0x60E JUMP JUMPDEST DUP2 DUP2 SUB PUSH1 0x40 DUP4 ADD MSTORE PUSH2 0xAA1 DUP2 DUP6 PUSH2 0x663 JUMP JUMPDEST SWAP1 POP DUP2 DUP2 SUB PUSH1 0x60 DUP4 ADD MSTORE PUSH2 0xAB5 DUP2 DUP5 PUSH2 0x663 JUMP JUMPDEST SWAP1 POP SWAP6 SWAP5 POP POP POP POP POP JUMP INVALID LOG2 PUSH5 0x6970667358 0x22 SLT KECCAK256 0xCE POP MSTORE 0xD7 0xD PUSH11 0x7898756851B9F9DEA4710C SELFBALANCE CALLER 0xB0 SWAP6 PUSH4 0x5EBC606A SWAP6 SHL BLOBBASEFEE SLT 0xB2 GASLIMIT PUSH5 0x736F6C6343 STOP ADDMOD XOR STOP CALLER "
        },
        "methodIdentifiers": {
          "caseCount()": "da2d7e95",
          "cases(uint256)": "f09790dd",
          "submitCase(string,string)": "2066447a"
        }
      }
    }
  }
}